:100000000C942F010C9460010C9460010C9460011D
:100010000C9460010C9460010C9460010C946001DC
:100020000C9460010C9460010C9460010C946001CC
:100030000C9460010C9460010C9460010C946001BC
:100040000C9460010C9460010C9460010C946001AC
:100050000C9460010C9460010C9460010C94660493
:100060000C9460010C9460010C9460010C9460018C
:100070000C9460010C9460010C9460010C9460017C
:100080000C9460010C9460010C9460010C9460016C
:100090000C9460010C9460010C9460010C9460015C
:1000A0000C9460010C9460010C9460010C9460014C
:1000B0000C9460010C9460010C9460010C9460013C
:1000C0000C9460010C9460010C9460010C9460012C
:1000D0000C9460010C9460010C9460010C9460011C
:1000E0000C9460010C94C4010C9415020C94F90159
:1000F0000C94FD010C94E5010C94F5010C94620143
:100100000C94A4020C94EB010C94BF010C94DE013E
:100110000C9403020C94EF010C94A3020C940702BC
:100120000C946D070C94D6010C9460040C940B0293
:100130000C9411020C94E2010C94DA0100002100ED
:10014000240027002A002D003000330001010000A8
:10015000040107010A0100002200250028002B00ED
:100160002E003100340002010000050108010B01DE
:1001700000000A0B02090C0D0E0807030401000021
:10018000000000000000000000000000000000006F
:10019000000000000000000000000000121110002C
:1001A000000000000000000000000000000000004F
:1001B00000000000000000002000230026002900AD
:1001C0002C002F003200000100000301060109018C
:1001D00005050505070508080808020202020A0AC3
:1001E00008080404040401010101010101010303E1
:1001F000030303030303040707070C0C0C0C0C0C8C
:100200000C0C0202020206060606060606060B0B88
:100210000B0B0B0B0B0B01021020200808102040C9
:1002200010204080020102010804020101020408BA
:100230001020408080402010080402018004020148
:100240008040201008040201080402010102040891
:100250001020408001020408102040806D07112406
:100260001FBECFEFD1E2DEBFCDBF00E00CBF12E07A
:10027000A0E0B2E0E2EFF3E100E00BBF02C00790C4
:100280000D92A032B107D9F722E0A0E2B2E001C09E
:100290001D92AD34B207E1F711E0CFE2D1E000E00A
:1002A00006C021970109802FFE010E94EF09CE327E
:1002B000D10780E00807A9F70E94F5040C94F7091C
:1002C0000C940000AF92BF92CF92DF92EF92FF9218
:1002D0000F931F93CF93DF936C017B018B01040F6E
:1002E000151FEB015E01AE18BF08C017D10759F00A
:1002F0006991D601ED91FC910190F081E02DC6014C
:100300001995892B79F7C501DF91CF911F910F9135
:10031000FF90EF90DF90CF90BF90AF900895282F7F
:1003200030E0F901E059FE4F9491F901EA5EFD4F8A
:10033000449120533E4FF9012491222309F435C002
:10034000992311F191509231F8F4E92FF0E08827C8
:10035000E355FE4F8F4F0C94EF09DE01E201BF0120
:10036000D601DA01C401E501EB01EF01F501F90164
:10037000FD0103020702C4010B0211021502809164
:1003800080008F7780938000E22FF0E0EE0FFF1F58
:10039000EA5AFE4FA591B4918FB7F894EC91611190
:1003A00048C040954E234C938FBF089580918000A4
:1003B0008F7DE8CF80918000877FE4CF84B58F77F1
:1003C00084BDE2CF84B58F7DFBCF8091B0008F7765
:1003D0008093B000D9CF8091B0008F7DF9CF80910C
:1003E00090008F7780939000CFCF809190008F7D89
:1003F000F9CF80919000877FF5CF8091A0008F7713
:100400008093A000C1CF8091A0008F7DF9CF809113
:10041000A000877FF5CF809120018F778093200106
:10042000B3CF809120018F7DF9CF80912001877F0C
:10043000F5CF4E2BB8CFCF93DF9390E0FC01EA5E6F
:10044000FD4F249180539E4FFC0184918823D1F06D
:1004500090E0880F991FFC01E45CFE4FA591B491D8
:10046000FC01EA5AFE4FC591D49161110EC09FB7AD
:10047000F8948C91E22FE0958E238C932881E223CF
:10048000E8839FBFDF91CF9108958FB7F894EC91E7
:10049000E22BEC938FBFF6CF3FB7F8948091250203
:1004A00090912602A0912702B091280226B5A89B20
:1004B00005C02F3F19F00196A11DB11D3FBFBA2FF6
:1004C000A92F982F8827BC01CD01620F711D811DB6
:1004D000911D42E0660F771F881F991F4A95D1F73B
:1004E00008958F929F92AF92BF92CF92DF92EF9238
:1004F000FF924B015C010E944C026B017C010E9447
:100500004C026C197D098E099F09683E7340810574
:100510009105A8F321E0821A9108A108B10888EE9C
:10052000C80E83E0D81EE11CF11C81149104A104C3
:10053000B10429F7FF90EF90DF90CF90BF90AF907C
:100540009F908F900895089590E080E008950F9314
:100550001F9390E0FC01EA5EFD4F6491FC01E053C3
:10056000FE4FE491F0E0EE0FFF1FEA54FE4F85913D
:10057000949100E412E42FE030E0462F0E94B00492
:10058000611571058105910529F06F5F7F4F8F4FD0
:100590009F4F9F701F910F910895FC0101900020C3
:1005A000E9F73197AF01481B590BBC0185E392E095
:1005B0000C9462018F929F92AF92BF920F931F9300
:1005C000CF93DF93CDB7DEB7A1970FB6F894DEBF18
:1005D0000FBECDBF19A2423008F44AE08E010F5D74
:1005E0001F4F842E912CB12CA12CA50194010E94A7
:1005F000CD09E62FB901CA01EA30F4F4E05DD80173
:10060000EE938D01232B242B252B79F790E080E0AE
:10061000109719F0CD010E94CD02A1960FB6F89463
:10062000DEBF0FBECDBFDF91CF911F910F91BF9065
:10063000AF909F908F900895E95CE1CFCF93DF93C7
:10064000EC0160E08E810E948F0161E08E810E944A
:100650008F0160E08E810E948F018BE891E001970D
:10066000F1F7DF91CF910895CF92DF92EF92FF9251
:100670000F931F93CF93DF936C017C0187E0E80E0B
:10068000F11CD0E0C0E0062F10E0B8010C2E02C033
:10069000759567950A94E2F76170F70181917F0182
:1006A0000E948F012196C430D10579F7C601DF91F0
:1006B000CF911F910F91FF90EF90DF90CF900C940E
:1006C0001E03CF92DF92EF92FF920F931F93CF936F
:1006D000DF93EC01F62E642F8C810E948F018D81B7
:1006E0008F3F19F060E00E948F010F2D10E08F8581
:1006F00084FF25C06E0187E0C80ED11CF12CE12CCF
:10070000B8010E2C02C0759567950A94E2F76170E6
:10071000F60181916F010E948F01FFEFEF1AFF0A2E
:1007200088E0E816F10461F7CE01DF91CF911F91C7
:100730000F91FF90EF90DF90CF900C941E03B801C3
:1007400084E0759567958A95E1F7CE010E943403A0
:100750006F2DCE01DF91CF911F910F91FF90EF9000
:10076000DF90CF900C94340340E0682F85E392E053
:100770000C946103CF93DF93823029F4909144026B
:10078000986090934402809348021092490280E45A
:1007900080934A0280E180934B0280E580934C0273
:1007A00061E0809139020E941B0280913A028F3FE2
:1007B00019F061E00E941B0261E080913B020E94FF
:1007C0001B02C5E3D2E09E012553324080914402D2
:1007D00084FD0BC084E090E021962817390744F48B
:1007E00061E08E810E941B02EECF88E090E0F4CFA2
:1007F0008BE39DE00197F1F760E0809139020E9460
:100800008F0160E080913B020E948F0180913A024B
:100810008F3F19F060E00E948F018091440284FDB7
:1008200039C063E085E392E00E943403CBE4D6E470
:10083000CE010197F1F763E085E392E00E94340373
:100840002197F1F763E085E392E00E94340383E5AA
:1008500092E00197F1F762E085E392E00E943403B1
:100860008091440280620E94B40384E08093450238
:100870008CE00E94B40381E00E94B4038BE39FE10B
:100880000197F1F782E08093460286E0DF91CF91F5
:100890000C94B40380620E94B4038BE496E4019745
:1008A000F1F78091440280620E94B40383E592E0F4
:1008B0000197F1F78091440280620E94B403D0CF87
:1008C00041E00E94610381E090E008951F920F9241
:1008D0000FB60F9211242F933F938F939F93AF9353
:1008E000BF938091210290912202A0912302B091A6
:1008F00024023091200223E0230F2D3758F5019672
:10090000A11DB11D20932002809321029093220209
:10091000A0932302B0932402809125029091260295
:10092000A0912702B09128020196A11DB11D8093CC
:10093000250290932602A0932702B0932802BF912C
:10094000AF919F918F913F912F910F900FBE0F907C
:100950001F90189526E8230F0296A11DB11DD2CF36
:10096000CF92DF92EF92FF920F931F93E82FF92F10
:1009700005C0015011092109310961F190819623C7
:100980009417B9F305C0015011092109310911F17A
:10099000908196239413F7CFC12CD12CE12CF12C0C
:1009A0000AC08FEFC81AD80AE80AF80A0C151D0504
:1009B0002E053F0579F080818623841791F36C2DF5
:1009C0007D2D8E2D9F2D1F910F91FF90EF90DF9029
:1009D000CF90089560E070E080E090E01F910F916B
:1009E000FF90EF90DF90CF900895789484B5826067
:1009F00084BD84B5816084BD85B5826085BD85B5C3
:100A0000816085BD80916E00816080936E00109240
:100A100081008091810082608093810080918100BB
:100A2000816080938100809180008160809380004C
:100A30008091B10084608093B1008091B0008160AA
:100A40008093B000809191008260809391008091AA
:100A500091008160809391008091900081608093EB
:100A600090008091A10082608093A1008091A100FC
:100A700081608093A1008091A00081608093A0009C
:100A80008091210182608093210180912101816008
:100A900080932101809120018160809320018091C9
:100AA0007A00846080937A0080917A0082608093DB
:100AB0007A0080917A00816080937A0080917A0038
:100AC000806880937A001092C10061E086E00E9405
:100AD0001B0261E087E00E941B0260E086E30E9447
:100AE0001B0261E089E00E941B0260E088E00E9436
:100AF0001B0282E00E94BA03C3E0D0E003E210E0F0
:100B000080E4382E9BE3892E9FE1992E20E0A22ECF
:100B100020E0B22E60E089E00E948F01CE010197B3
:100B2000F1F761E089E00E948F01C8010197F1F7B8
:100B300060E089E00E948F0188E00E94A702609334
:100B40003102709332028093330290933402809189
:100B50007B00877F80937B0030927C0080917A00BD
:100B6000806480937A0080917A0086FDFCCF80912A
:100B7000780060917900762F682F072E000C880B83
:100B8000990B0E94A60820E030E04AEF53E40E944F
:100B90005B0920E030EC4FE754E40E94FC076093CF
:100BA0002D0270932E0280932F0290933002609159
:100BB00031027091320280913302909134020E948E
:100BC000A60826E933E44BE05DE30E945B0920E0E0
:100BD00030E040E05FE30E945B090E946E08609392
:100BE000290270932A0280932B0290932C02E1E059
:100BF000809148028111E0E0E195F0E0EB5CFD4F6F
:100C0000848980680E94B40381E00E94B403C40117
:100C10000197F1F78CE092E00E94CD02C09029028A
:100C2000D0902A02E0902B02F0902C024AE0C701FB
:100C3000B601F7FE0EC041E06DE285E392E00E944E
:100C4000610366277727CB016C197D098E099F09FF
:100C50004AE00E94DA02E0914802E23008F088C0DF
:100C6000E150F0E0EB5CFD4F848980680E94B403A2
:100C7000C0902D02D0902E02E0902F02F090300212
:100C8000A7019601C701B6010E94C809882309F48B
:100C900071C084E192E00E94CD0268EC70E080E0D7
:100CA00090E00E94710260E089E00E948F01CE0115
:100CB0000197F1F761E089E00E948F01C801019777
:100CC000F1F760E089E00E948F0188E00E94A702AE
:100CD0006093310270933202809333029093340216
:100CE0000E94A60826E933E44BE05DE30E945B091D
:100CF00020E030E040E05FE30E945B090E946E0864
:100D00006B017C01C0922902D0922A02E0922B0250
:100D1000F0922C0268EE73E080E090E00E94710295
:100D200040902D0250902E0260902F027090300261
:100D300020E030E048EC51E4C301B2010E945609C2
:100D400087FDACC089ECC816D104E104F1040CF0B5
:100D5000B1C061E086E00E948F0160E087E00E9400
:100D60008F01A114B10409F4D5CE0E940000D2CEA7
:100D7000E1E077CF26013701E89477F82FEF3FEFD6
:100D80004FE75FE7C301B2010E94C80981110DC09E
:100D90002FEF3FEF4FE75FE7C301B2010E94F70774
:100DA00018161CF488E192E076CF2FEF3FEF4FE763
:100DB0005FE4C701B6010E94560918161CF48CE1C5
:100DC00092E069CF2FEF3FEF4FE75FECC701B6012D
:100DD0000E94F70787FDF3CF20E030E0A901C701AB
:100DE000B6010E94F70787FF0AC041E06DE285E384
:100DF00092E00E946103F7FAF094F7F8F0942AE089
:100E000037ED43EA5BE3C701B6010E948B072B0174
:100E10003C010E9475086B017C010E94A4089B01A3
:100E2000AC01C301B2010E948A072B013C014AE0D8
:100E3000C701B6010E94DA0241E06EE285E392E06A
:100E40000E94610320E030E040E251E4C301B201BE
:100E50000E945B092B013C010E9475086B01F12C7B
:100E6000E12C4AE0C701B6010E94DA02C701B601CF
:100E70000E94A4089B01AC01C301B2010E948A0731
:100E800020E030E040E251E40E945B090E947508D6
:100E900090E080E04AE00E94DA02FFCE20E030E0FD
:100EA00040EA51E4C301B2010E94F707181614F09A
:100EB00060E050CF20E030E040EA51E4C301B201ED
:100EC0000E94F70718160CF444CF88ECC816D1041A
:100ED000E104F1040CF43DCFEBCFE5E3F2E0138243
:100EE000128284E092E09183808314828FEF858365
:100EF00081E0868382E0878383E0808784E0818746
:100F000085E082871386148615861686178681E00B
:100F10000C94BA035058BB27AA270E94A2070C942E
:100F20001C090E940E0938F00E94150920F039F4BE
:100F30009F3F19F426F40C940B090EF4E095E7FB9F
:100F40000C940509E92F0E942D0958F3BA1762077E
:100F500073078407950720F079F4A6F50C944F09E0
:100F60000EF4E0950B2EBA2FA02D0B01B9019001C4
:100F70000C01CA01A0011124FF27591B99F0593F08
:100F800050F4503E68F11A16F040A22F232F342F50
:100F90004427585FF3CF469537952795A795F0409E
:100FA0005395C9F77EF41F16BA0B620B730B840BB3
:100FB000BAF09150A1F0FF0FBB1F661F771F881F6B
:100FC000C2F70EC0BA0F621F731F841F48F48795C3
:100FD00077956795B795F7959E3F08F0B0CF9395B5
:100FE000880F08F09927EE0F9795879508950E942E
:100FF000E10808F481E008950E9410080C941C098F
:101000000E94150958F00E940E0940F029F45F3F34
:1010100029F00C94050951110C9450090C940B09FA
:101020000E942D0968F39923B1F3552391F3951B81
:10103000550BBB27AA2762177307840738F09F5FF9
:101040005F4F220F331F441FAA1FA9F335D00E2E66
:101050003AF0E0E832D091505040E695001CCAF7D3
:101060002BD0FE2F29D0660F771F881FBB1F261796
:1010700037074807AB07B0E809F0BB0B802DBF016D
:10108000FF2793585F4F3AF09E3F510578F00C943C
:1010900005090C9450095F3FE4F3983ED4F386951C
:1010A00077956795B795F7959F5FC9F7880F911D5D
:1010B0009695879597F90895E1E0660F771F881F49
:1010C000BB1F621773078407BA0720F0621B730BFC
:1010D000840BBA0BEE1F88F7E09508950E947508FF
:1010E0006894B1110C94500908950E94350988F054
:1010F0009F5798F0B92F9927B751B0F0E1F0660FDC
:10110000771F881F991F1AF0BA95C9F714C0B1301C
:1011100091F00E944F09B1E008950C944F09672F98
:10112000782F8827B85F39F0B93FCCF3869577954B
:101130006795B395D9F73EF4909580957095619534
:101140007F4F8F4F9F4F0895E89409C097FB3EF45F
:1011500090958095709561957F4F8F4F9F4F992304
:10116000A9F0F92F96E9BB279395F6958795779582
:101170006795B795F111F8CFFAF4BB0F11F460FF42
:101180001BC06F5F7F4F8F4F9F4F16C0882311F09A
:1011900096E911C0772321F09EE8872F762F05C0AE
:1011A000662371F096E8862F70E060E02AF09A9549
:1011B000660F771F881FDAF7880F9695879597F93E
:1011C0000895990F0008550FAA0BE0E8FEEF1616D8
:1011D0001706E807F907C0F012161306E407F5072B
:1011E00098F0621B730B840B950B39F40A2661F09F
:1011F000232B242B252B21F408950A2609F4A14042
:10120000A6958FEF811D811D089597F99F6780E84E
:1012100070E060E008959FEF80EC089500240A9448
:101220001616170618060906089500240A941216C1
:101230001306140605060895092E0394000C11F4F4
:10124000882352F0BB0F40F4BF2B11F460FF04C0A1
:101250006F5F7F4F8F4F9F4F089557FD9058440FFA
:10126000551F59F05F3F71F04795880F97FB991F05
:1012700061F09F3F79F087950895121613061406C2
:10128000551FF2CF4695F1DF08C01616170618064F
:10129000991FF1CF86957105610508940895E8942A
:1012A000BB2766277727CB0197F908950E94E108AD
:1012B00008F48FEF08950E946E090C941C090E9497
:1012C0000E0938F00E94150920F0952311F00C94B6
:1012D00005090C940B0911240C9450090E942D0946
:1012E00070F3959FC1F3950F50E0551F629FF00179
:1012F000729FBB27F00DB11D639FAA27F00DB11D92
:10130000AA1F649F6627B00DA11D661F829F22271A
:10131000B00DA11D621F739FB00DA11D621F839FA1
:10132000A00D611D221F749F3327A00D611D231F77
:10133000849F600D211D822F762F6A2F11249F57C5
:1013400050409AF0F1F088234AF0EE0FFF1FBB1FC8
:10135000661F771F881F91505040A9F79E3F510587
:1013600080F00C9405090C9450095F3FE4F3983E1B
:10137000D4F3869577956795B795F795E7959F5F31
:10138000C1F7FE2B880F911D9695879597F90895C3
:101390000E94E108880B990B0895A1E21A2EAA1B5E
:1013A000BB1BFD010DC0AA1FBB1FEE1FFF1FA21715
:1013B000B307E407F50720F0A21BB30BE40BF50B12
:1013C000661F771F881F991F1A9469F7609570959B
:1013D000809590959B01AC01BD01CF010895EE0F62
:1013E000FF1F881F8BBF0790F691E02D1994F8948A
:0213F000FFCF2D
:1013F2000000000060046201A402A302442D2863DD
:101402006D293A006E616E00696E66006F76660045
:00000001FF
